:020000040800F2
:1000000000800120BD200008692000086B20000846
:100010006D2000086F20000871200008000000001B
:100020000000000000000000000000007320000835
:1000300075200008000000007720000879200008E3
:100040000D2100080D2100080D2100080D210008D8
:100050000D2100080D2100080D2100080D210008C8
:100060000D2100080D2100080D2100080D210008B8
:100070000D2100080D2100080D2100080D210008A8
:100080000D2100080D2100080D2100080D21000898
:100090000D2100080D2100080D2100080D21000888
:1000A0000D2100080D2100080D2100080D21000878
:1000B0000D2100080D2100080D2100080D21000868
:1000C0000D2100080D2100080D2100080D21000858
:1000D0000D2100080D2100080D2100080D21000848
:1000E0000D2100080D2100080D2100080D21000838
:1000F0000D2100080D2100080D2100080D21000828
:100100000D2100080D2100080D2100080D21000817
:100110000D2100080D2100080D2100080D21000807
:100120000D2100080D2100080D2100080D210008F7
:100130000D2100080D2100080D2100080D210008E7
:100140000D2100080D2100080D2100080D210008D7
:100150000D2100080D2100080D2100080D210008C7
:100160000D2100080D2100080D2100080D210008B7
:100170000D2100080D2100080D21000800000000DD
:080180000D2100080D2100080B
:1001880010B5054C237833B9044B13B10448AFF3C9
:1001980000800123237010BD3C04002000000000F3
:1001A800DC22000808B5034B1BB103490348AFF331
:1001B800008008BD0000000040040020DC22000888
:1001C80053B94AB9002908BF00281CBF4FF0FF31B6
:1001D8004FF0FF3000F074B9ADF1080C6DE904CEB2
:1001E80000F006F8DDF804E0DDE9022304B070470A
:1001F8002DE9F047089E0D4604468846002B4DD150
:100208008A42944668D9B2FA82F252B101FA02F3EC
:10021800C2F1200120FA01F10CFA02FC41EA0308BC
:1002280094404FEA1C45210CB8FBF5FE1FFA8CF7E9
:1002380005FB1E8341EA03430EFB07F199420BD9E4
:100248001CEB03030EF1FF3080F01E81994240F24F
:100258001B81AEF1020E63445B1AA4B2B3FBF5F046
:1002680005FB103344EA034400FB07F7A7420AD909
:100278001CEB040400F1FF3380F00881A74240F230
:10028800058164440238E41B40EA0E4000211EB197
:10029800D4400023C6E90043BDE8F0878B4208D963
:1002A800002E00F0EE800021C6E900050846BDE8F2
:1002B800F087B3FA83F100294AD1AB4202D38242D4
:1002C80000F2F980841A65EB030301209846002E9A
:1002D800E2D0C6E90048DFE702B9FFDEB2FA82F2EF
:1002E800002A40F09180A1EB0C054FEA1C471FFA49
:1002F8008CFE0121B5FBF7F307FB1350250C45EAEB
:1003080000450EFB03F0A84208D91CEB050503F1D4
:10031800FF3802D2A84200F2CB8043462D1AA4B27D
:10032800B5FBF7F007FB105544EA05440EFB00FE49
:10033800A64508D91CEB040400F1FF3502D2A645F6
:1003480000F2BB802846A4EB0E0440EA03409EE777
:10035800C1F120078B4022FA07FC4CEA030C20FA73
:1003680007F405FA01F31C43FD404FEA1C4900FA63
:1003780001F3B5FBF9F8200C1FFA8CFE09FB1855A0
:1003880040EA054508FB0EF0A84202FA01F20BD933
:100398001CEB050508F1FF3A80F08880A84240F27E
:1003A8008580A8F1020865442D1AA4B2B5FBF9F0BE
:1003B80009FB105544EA054500FB0EFEAE4508D979
:1003C8001CEB050500F1FF346CD2AE456AD9023842
:1003D800654440EA0840A0FB0294A5EB0E05A5423F
:1003E800C846A64656D353D05EB1B3EB080265EBB8
:1003F8000E0505FA07F722FA01F3CD401F43C6E9B7
:1004080000750021BDE8F087C2F1200320FA03F14E
:100418000CFA02FC25FA03F395400D434FEA1C47FA
:100428001FFA8CFEB3FBF7F107FB11302B0C43EAE4
:10043800004301FB0EF0984204FA02F408D91CEBC1
:10044800030301F1FF382FD298422DD902396344B2
:100458001B1AADB2B3FBF7F007FB103345EA0345AF
:1004680000FB0EF3AB4208D91CEB050500F1FF3881
:1004780016D2AB4214D902386544ED1A40EA01415C
:1004880038E73146304607E78646E5E61846FAE695
:100498004B45A9D2B9EB020864EB0C0E0138A3E76F
:1004A8004046EAE7204694E74146D1E7D0467BE755
:1004B800023B654432E7084609E76444023842E7EC
:1004C800704700BF104B1B780BB90120704710B55F
:1004D80004464FF47A70B0FBF3F30C4A1068B0FB93
:1004E800F3F000F089F868B90F2C01D901200AE06F
:1004F800002221464FF0FF3000F046F8044B1C6004
:10050800002000E0012010BD0000002008000020AD
:100518000400002010B5094A136843F4807313607F
:10052800032000F01FF80020FFF7CCFF10B10124D2
:10053800204610BD044601F047FDF9E700200240BF
:10054800034B1B78034A11680B441360704700BFC4
:100558000000002058040020014B1868704700BFB5
:1005680058040020074AD36823F4E0631B041B0CDB
:10057800000200F4E060034343F0BF6343F4003338
:10058800D360704700ED00E000B5194BDB68C3F39A
:100598000223C3F1070CBCF1040F28BF4FF0040C71
:1005A80003F1040EBEF1060F18D9033B4FF0FF3ECE
:1005B8000EFA0CFC21EA0C0199400EFA03F322EA28
:1005C8000303194300280BDB0901C9B200F160409D
:1005D80000F5614080F800135DF804FB0023E5E7AF
:1005E80000F00F000901C9B2024B1954F4E700BF2B
:1005F80000ED00E014ED00E00138B0F1807F0BD28F
:100608004FF0E0235861054AF02182F823100020BA
:10061800986107221A6170470120704700ED00E0D9
:10062800F0B583B0002340E0C56A25EA0C0CC4F39A
:10063800C0049C4044EA0C04C46262E0062400E062
:100648000024B4403C430235684E46F82540684CC7
:100658002568D44325EA02064F6817F4803F01D085
:1006680042EA0506624D2E606D6804EA05064F6889
:1006780017F4003F01D042EA05065D4D6E60AD6893
:1006880004EA05064F6817F4801F01D042EA050600
:10069800574DAE60ED682C404E6816F4001F01D02F
:1006A80042EA0504524AD46001330A6832FA03F474
:1006B80000F099804FF0010C0CFA03FC1CEA0202CE
:1006C800F2D04C68651E012D03D9112C01D0122CD3
:1006D80012D185685E000324B44025EA0405CC687D
:1006E800B4402C438460456825EA0C054C68C4F383
:1006F80000149C402C4344604C6804F00305032D0F
:1007080092D0C6684FEA430C032505FA0CF5EC4372
:1007180026EA050E8D6805FA0CF545EA0E05C56052
:100728004D68022D01D0122D12D1DE08083650F87E
:10073800267003F007054FEA850E0F2505FA0EF51A
:1007480027EA05070D6905FA0EF53D4340F82650DE
:10075800056825404C6804F0030404FA0CF42C43A3
:1007680004604C6814F0805F9ED0224C256E45F0E2
:1007780001052566246E04F001040194019C9D087E
:10078800AE1C1A4C54F8267003F00304A6000F247C
:10079800B44027EA0407B0F1904F3FF451AF164C2C
:1007A800A04216D004F58064A04214D004F58064F9
:1007B800A04212D004F58064A04210D004F58064F1
:1007C800A0420ED004F58064A0423FF437AF07245E
:1007D80037E7012435E7022433E7032431E704240B
:1007E8002FE705242DE703B0F0BD00BF000001404E
:1007F8000004014000100240000400480AB1816171
:100808007047816270470000024B186800F4C060AE
:10081800704700BF00700040B0F5007F0FD01F4B3D
:100828001B6803F4C063B3F5806F34D01B4A1368A8
:1008380023F4C06343F48063136000207047174BB0
:100848001B6803F4C063B3F5007F20D0134A136814
:1008580023F4C06343F400731360114B1B68322206
:1008680002FB03F30F4AA2FB03239B0C013300E0B6
:10087800013B0A4A526912F4806F01D0002BF7D16C
:10088800064B5B6913F4806F03D10020704700208A
:100898007047032070470020704700BF0070004079
:1008A8000800002083DE1B4330B583B00446204B8C
:1008B8009B6D13F0805F0BD0FFF7A6FFB0F5007FAC
:1008C80017D0802C1FD82DD0702C2DD000211BE0E4
:1008D800174DAB6D43F08053AB65AB6D03F08053A0
:1008E8000193019BFFF790FFAB6D23F08053AB653D
:1008F800E4E7802C03D9A02C03D9022104E00021CD
:1009080002E0012100E003210A4A136823F00703EB
:100918000B431360136803F007038B4206D10020D2
:1009280003B030BD0221EFE70121EDE70120F7E731
:100938000010024000200240284A9368D26802F062
:10094800030213F00C030AD00C2B06D0042B1FD083
:10095800082B20D00020024610E0012AF6D11F4AB9
:10096800126812F0080F0CD11C4AD2F89420C2F376
:1009780003221B4951F8222043B100200C2B0DD033
:100988007047164A1268C2F30312F2E71046F5E7F9
:1009980014480022F2E714480022EFE70F4BDB6807
:1009A80003F00303022B16D0032B00D10E4A0B4988
:1009B800C868C0F30210431CC868C0F3062002FBD5
:1009C80000F0B0FBF3F0CB68C3F3416301335B0085
:1009D800B0FBF3F0D4E7034AE9E700BF0010024098
:1009E8000C2300080024F40000127A00002800F00C
:1009F800FC82F0B583B00446964B9D6805F00C0563
:100A0800DE6806F00306036813F0100F5AD0E5B14C
:100A18000C2D18D0A369002B00F0BB808D4A1368F9
:100A280043F001031360FFF797FD0746894B1B68E6
:100A380013F0020F40F09A80FFF78EFDC01B0228CA
:100A4800F4D90320DCE2012EE4D1824B1B6813F0B9
:100A5800020F03D0A369002B00F0C982206A7D4BE6
:100A68001B6813F0080F5BD07A4B1B6803F0F00388
:100A780098425CD8774B1A6842F008021A601A68E4
:100A880022F0F002216A0A431A605A6822F47F426F
:100A9800E16942EA01225A60002D60D0FFF74CFF5D
:100AA8006C4B9B68C3F303136B4AD35C03F01F03BF
:100AB800D8406A4B18606A4B1868FFF703FD002896
:100AC80040F09E82236813F0010F00F08180082D0A
:100AD80075D00C2D71D06368B3F5803F00F0978016
:100AE800B3F5A02F00F099805A4B1A6822F480328F
:100AF8001A601A6822F480221A606368002B00F0DA
:100B08009980FFF729FD0746524B1B6813F4003FF5
:100B18005ED1FFF721FDC01B6428F5D903206FE2E1
:100B28004C4BD3F894301B0903F0F003A0E7FFF710
:100B3800BBFE002840F05D82464B1A6842F008026E
:100B48001A601A6822F0F002216A0A431A605A6889
:100B580022F47F42E16942EA01225A609EE7206A54
:100B6800FFF7A2FE002899D0012049E2394B1A6804
:100B780042F008021A601A6822F0F002216A0A4359
:100B88001A605A6822F47F42E16942EA01225A60F7
:100B980098E7304A136823F001031360FFF7DCFC81
:100BA80007462C4B1B6813F0020F8BD0FFF7D4FCC1
:100BB800C01B0228F5D9032022E2032E8BD1254B36
:100BC8001B6813F4003F03D06368002B00F0138206
:100BD800236813F0020F58D0042D45D00C2D41D0B6
:100BE800E368002B77D01B4A136843F480731360C3
:100BF800FFF7B2FC0646174B1B6813F4806F61D1F0
:100C0800FFF7AAFC801B0228F5D90320F8E1114A56
:100C1800136843F4803313606FE703F18043A3F54F
:100C28003C331A6842F480221A601A6842F480320F
:100C38001A6062E7FFF790FC0746064B1B6813F43F
:100C4800003FC5D0FFF788FCC01B6428F5D90320F6
:100C5800D6E100BF00100240F4220008080000207E
:100C680004000020022EBBD1954B1B6813F4806F43
:100C780003D0E368002B00F0C081914A536823F049
:100C8800F853216943EA01635360236813F0080F9E
:100C98004CD063699BB38A4AD2F8943043F001037D
:100CA800C2F89430FFF758FC0646854BD3F89430C9
:100CB80013F0020F3AD1FFF74FFC801B0228F4D93A
:100CC80003209DE17E4A536823F0F853216943EAE3
:100CD80001635360D9E77A4A136823F48073136079
:100CE800FFF73AFC0646764B1B6813F4806FCCD0AE
:100CF800FFF732FC801B0228F5D9032080E1704AF7
:100D0800D2F8943023F00103C2F89430FFF724FCA2
:100D180006466B4BD3F8943013F0020F06D0FFF75A
:100D28001BFC801B0228F4D9032069E1236813F017
:100D3800040F7AD0624B9B6D13F0805F36D1604B05
:100D48009A6D42F080529A659B6D03F0805301932F
:100D5800019B01265B4B1B6813F4807F28D0A36896
:100D6800012B39D0052B3FD0554BD3F8902022F0DA
:100D78000102C3F89020D3F8902022F00402C3F8AF
:100D88009020A368002B3DD0FFF7E6FB07464C4BAD
:100D9800D3F8903013F0020F46D1FFF7DDFBC01BEC
:100DA80041F288339842F2D9032029E10026D1E79D
:100DB800444A136843F480731360FFF7CDFB07467A
:100DC800404B1B6813F4807FC9D1FFF7C5FBC01BDC
:100DD8000228F5D9032013E1394AD2F8903043F0BC
:100DE8000103C2F89030CCE7354BD3F8902042F09D
:100DF8000402C3F89020D3F8902042F00102C3F80F
:100E08009020BEE7FFF7A8FB07462D4BD3F890309C
:100E180013F0020F08D0FFF79FFBC01B41F2883385
:100E28009842F2D90320EBE06EBBA36A002B00F0D6
:100E3800E680022B2DD00C2D00F0E880204B1A689C
:100E480022F080721A601B6813F0205F04D11C4ADC
:100E5800D36823F00303D360194AD36823F0887357
:100E680023F48033D360FFF777FB0446144B1B68E9
:100E780013F0007F00F0B780FFF76EFB001B02281D
:100E8800F4D90320BCE00E4A936D23F08053936598
:100E9800CBE70B4BDB6803F00301E26A914213D006
:100EA8000C2D00F0AF80064B1B6813F0806F40F0EC
:100EB800AB80034B1B6813F0805F31D001209FE0AB
:100EC800001002400070004003F07002216B0139ED
:100ED800B2EB011FE4D103F4FE42616BB2EB012FC8
:100EE800DED103F40031A26B073A18BF0122914208
:100EF800D6D103F4C001E26B5208013AB1EB425F6C
:100F0800CED103F0C063226C5208013AB3EB426FB2
:100F1800C6D13F4B1B6813F0007F4AD000206FE01A
:100F28003B4A136823F080731360FFF715FB0546EF
:100F3800374B1B6813F0007F06D0FFF70DFB401BF3
:100F48000228F5D903205BE0314AD36831491940BA
:100F5800E36A206B013843EA0013606B43EA00231D
:100F6800E06B4008013843EA4053206C40080138E0
:100F780043EA4063A06B000943EA40430B43D36054
:100F8800136843F080731360D36843F08073D360B1
:100F9800FFF7E2FA04461E4B1B6813F0007F06D1E8
:100FA800FFF7DAFA001B0228F5D9032028E0002011
:100FB80026E0174B1A6842F080721A60DA6842F02D
:100FC8008072DA60FFF7C8FA0446114B1B6813F009
:100FD800007F06D1FFF7C0FA031B022BF5D90320C7
:100FE8000EE000200CE000200AE0012070470120FC
:100FF80006E0012004E0012002E0012000E00020DA
:1010080003B0F0BD0120FBE70120F9E70120F7E775
:10101800001002408C809DF9002800F0988070B57F
:101028000C4605464E4B1B6803F007038B420BD258
:101038004B4A136823F007030B431360136803F04C
:1010480007038B4240F085802B6813F0010F39D0DD
:101058006B68032B09D0022B26D063BB414A126868
:1010680012F0020F06D1012070E03E4A126812F019
:10107800007F70D03B498A6822F0030213438B60DB
:10108800FFF76AFA0646374B9B6803F00C036A6859
:10109800B3EB820F16D0FFF75FFA801B41F288335B
:1010A8009842F0D9032051E02E4A126812F4003F0A
:1010B800E0D101204AE02B4A126812F4806FD9D19E
:1010C800012043E02B6813F0020F06D0254A9368ED
:1010D80023F0F003A9680B439360214B1B6803F0CE
:1010E8000703A3420AD91E4A136823F007032343C0
:1010F8001360136803F00703A3422ED12B6813F083
:10110800040F06D0174A936823F4E063E9680B4399
:1011180093602B6813F0080F07D0124A936823F4E2
:101128006053296943EAC1039360FFF705FC0D4B3F
:101138009B68C3F303130C4AD35C03F01F03D84026
:101148000A4B18600A4B1868FFF7BCF970BD0120FC
:1011580070470120FAE70120F8E70120F6E700BF11
:101168000020024000100240F4220008080000207D
:1011780004000020014B1868704700BF08000020D9
:1011880008B5FFF7F7FF054B9B68C3F30223044A32
:10119800D35C03F01F03D84008BD00BF0010024015
:1011A8000423000808B5FFF7E5FF054B9B68C3F368
:1011B800C223044AD35C03F01F03D84008BD00BF14
:1011C8000010024004230008F8B504460F46594BA6
:1011D800DB6813F0030F18D0564BDB6803F00303EA
:1011E8000268934202D001252846F8BD002A00F083
:1011F8009E80504BDB68C3F302130133426893426D
:1012080001D00125F0E7002509E00368022B57D03B
:10121800032B5CD0012B42D00125002DE4D1454A97
:10122800136823F080631360FFF796F90646414B75
:101238001B6813F0006F05D0FFF78EF9831B022B94
:10124800F5D90325002DCFD1002F4ED139490B698F
:1012580023F41F3323F44073A068E2681209520490
:1012680042EA002213430B61324A136843F0806359
:101278001360FFF771F906462E4B1B6813F0006FD9
:1012880005D1FFF769F9831B022BF5D90325002D3A
:10129800AAD1284A1369A1690B431361A4E7254A17
:1012A800126812F0020F1ED02248C26822F07302A0
:1012B8006168013943EA01131343C3600025ACE7B1
:1012C8001C4A126812F4806FEED10125A5E7194A6D
:1012D800126812F4003FE7D1164A126812F4802F00
:1012E800E2D1012599E7012597E7012F0FD0114891
:1012F800026922F0C06222F4FE42A16863695B08B9
:10130800013B5B0643EA012313430361ACE7094849
:10131800026922F4C00222F4FE42A16823695B0834
:10132800013B5B0543EA0123134303619CE7012565
:101338005AE700BF00100240F8B504460F46504B6C
:10134800DB6813F0030F18D04D4BDB6803F0030381
:101358000268934202D001252846F8BD002A00F011
:101368008C80474BDB68C3F3021301334268934216
:1013780001D00125F0E7002509E00368022B57D0CA
:10138800032B5CD0012B42D00125002DE4D13C4A2F
:10139800136823F080531360FFF7DEF80646384BD6
:1013A8001B6813F0005F05D0FFF7D6F8831B022BEC
:1013B800F5D90325002DCFD1002F4ED130494B69E7
:1013C80023F41F3323F44073A068E268120952041F
:1013D80042EA002213434B61294A136843F08053C1
:1013E8001360FFF7B9F80646254B1B6813F0005F3A
:1013F80005D1FFF7B1F8831B022BF5D90325002D82
:10140800AAD11F4A536961690B435361A4E71C4A77
:10141800126812F0020F1ED01948C26822F0730237
:101428006168013943EA01131343C3600025ACE73F
:10143800134A126812F4806FEED10125A5E7104A0D
:10144800126812F4003FE7D10D4A126812F4802F97
:10145800E2D1012599E7012597E70948426922F079
:10146800C06222F4FE42A16823695B08013B5B0667
:1014780043EA012313434361AEE701256CE700BF4C
:10148800001002402DE9F04182B00446036813F4CD
:10149800006F33D0436EB3F5000F1FD00CD823B3C1
:1014A800B3F5800F05D100212030FFF745FF064630
:1014B80020E001273E4623E0B3F5400F0BD100267C
:1014C800604AD2F8883023F44003616E0B43C2F8B7
:1014D8008830002714E001273E4611E0594AD368B6
:1014E80043F48033D3600026EAE700210430FFF795
:1014F8006BFE0646002EE3D0374601E000273E4645
:10150800236813F4805F30D0A36EB3F1007F1FD03F
:101518000DD81BB3B3F1807F06D1002104F1200060
:10152800FFF70AFF064605E001273E461DE0B3F136
:10153800407F0AD1C6B9434AD2F8883023F04073B5
:10154800A16E0B43C2F888300FE001273E460CE03D
:101558003C4AD36843F48033D360EBE70021201D75
:10156800FFF732FE0646E5E73746236813F4003FE7
:1015780071D0344B9B6D13F0805F4ED1314B9A6D17
:1015880042F080529A659B6D03F080530193019B52
:101598004FF001082C4A136843F480731360FEF778
:1015A800DBFF0546284B1B6813F4807F05D1FEF747
:1015B800D3FF401B0228F5D90326002E46D1214B24
:1015C800D3F8903013F4407316D0D4F884209A429C
:1015D80012D01C4AD2F8903023F44073D2F89010FD
:1015E80041F48031C2F89010D2F8901021F4803183
:1015F800C2F89010C2F8903013F0010F10D1002EED
:1016080040F027810F4AD2F8903023F44073D4F881
:1016180084100B43C2F8903019E04FF00008B9E786
:10162800FEF79AFF0546074BD3F8903013F0020FE8
:10163800E5D1FEF791FF401B41F288339842F2D979
:101648000326DCE700100240007000403746B8F17E
:10165800000F40F00081236813F0010F08D09D4A65
:10166800D2F8883023F00303A16B0B43C2F888300B
:10167800236813F0020F08D0964AD2F8883023F076
:101688000C03E16B0B43C2F88830236813F0040F96
:1016980008D0904AD2F8883023F03003216C0B43ED
:1016A800C2F88830236813F0080F08D0894AD2F8A6
:1016B800883023F0C003616C0B43C2F8883023687C
:1016C80013F0100F08D0834AD2F8883023F44073FF
:1016D800A16C0B43C2F88830236813F0200F08D0A0
:1016E8007C4AD2F8883023F44063E16C0B43C2F89B
:1016F8008830236813F4007F08D0764AD2F88830FF
:1017080023F44023E16D0B43C2F88830236813F4B7
:10171800806F08D06F4AD2F8883023F44013216EC6
:101728000B43C2F88830236813F0400F08D0694A89
:10173800D2F8883023F44053216D0B43C2F8883027
:10174800236813F0800F08D0624AD2F8883023F457
:101758004043616D0B43C2F88830236813F4807FDF
:1017680008D05C4AD2F8883023F44033A16D0B438B
:10177800C2F88830236813F4005F0FD0554AD2F8B6
:10178800883023F04063E16E0B43C2F88830E36E83
:10179800B3F1006F65D0B3F1806F67D0236813F49D
:1017A800002F0FD04B4AD2F8883023F04063216FC6
:1017B8000B43C2F88830236FB3F1006F5ED0B3F1EA
:1017C800806F60D0236813F4802F0FD0414AD2F87D
:1017D800883023F04063616F0B43C2F88830636F31
:1017E800B3F1006F57D0B3F1806F59D0236813F469
:1017F800804F0FD0374AD2F8883023F04053A16F7A
:101808000B43C2F88830A36FB3F1805F50D0B3F1B7
:10181800005F55D0236813F4004F08D02D4AD2F842
:10182800883023F08043E16F0B43C2F88830236887
:1018380013F4803F09D0274AD2F8883023F00043B8
:10184800D4F880100B43C2F88830384602B0BDE89F
:10185800F0813746FBE61F4A936D23F0805393656A
:10186800F9E6D36843F48013D36097E70121201D7C
:10187800FFF7AAFC002891D007468FE7D36843F406
:101888008013D3609EE70121201DFFF79DFC0028EF
:1018980098D0074696E7D36843F48013D360A5E74A
:1018A8000121201DFFF790FC00289FD007469DE7E7
:1018B8000221201DFFF788FC0028ABD00746A9E7C6
:1018C800022104F12000FFF737FD0028A2D00746C7
:1018D800A0E700BF0010024010B504460168836805
:1018E8000269134342691343C269134308688E4A65
:1018F800024013430B602268536823F44053E168A5
:101908000B435360A1692268884B9A4201D0236A2D
:101918001943936823F430630B4393602368844A24
:10192800934210D0834A934221D0834A934237D0BE
:10193800824A93425CD0824A93426BD07B4A93425C
:101948007DD010223AE002F55842D2F8882002F001
:101958000302032A09D8DFE802F0020487060122FD
:101968002CE004222AE0082228E0102226E002F5D2
:10197800E632D2F8882002F00C020C2A0ED8DFE8F2
:1019880002F0070D0D0D090D0D0D750D0D0D0B0058
:10199800002213E0042211E008220FE010220DE0DB
:1019A80002F5E432D2F8882002F03002202A5FD013
:1019B8001AD8002A5ED0102A5ED104225B498B42D5
:1019C80076D0E069B0F5004F00F0A380082A00F255
:1019D8000E81DFE812F0DD00F300DB000C01F600F9
:1019E8000C010C010C01F900302A47D10822E5E767
:1019F80002F5E232D2F8882002F0C002802A3FD0F5
:101A080004D8FAB3402A3FD10422D7E7C02A3DD1EF
:101A18000822D3E702F5E032D2F8882002F44072B7
:101A2800B2F5007F34D005D8A2B3B2F5807F33D1A8
:101A38000422C3E7B2F5407F30D10822BEE702F5A1
:101A4800C832D2F8882002F44062B2F5006F27D07D
:101A580005D83AB3B2F5806F26D10422AEE7B2F5C5
:101A6800406F23D10822A9E70222A7E70222A5E7AF
:101A78000222A3E70022A1E710229FE710229DE798
:101A880002229BE7002299E7102297E7102295E7A8
:101A9800022293E7002291E710228FE710228DE7B8
:101AA80002228BE7002289E7102287E7102285E7C8
:101AB800082A00F28C80DFE802F0088A2A8A278A3E
:101AC8008A8A05004FF4004003E0FFF759FB00281D
:101AD8007FD0626802EB420383427CD8B0EB023FBE
:101AE8007BD8010E00025308C0184FF0000341F1E3
:101AF8000001FEF765FBA0F54072124B9A426ED8C2
:101B08002368D860002055E0FEF716FFDFE70E488F
:101B1800DFE7082A65D8DFE802F019330564366480
:101B280064641D00084815E0F369FFEF0080004079
:101B3800003801400044004000480040004C00408C
:101B480000500040FFFC0F000024F400FFF718FBD2
:101B5800002848D06268530803EB4000B0FBF2F05D
:101B680080B2A0F110024FF6EF739A423DD820F0F0
:101B78000F03C0F3420018432368D860002019E01F
:101B8800FFF710FBE4E7FEF7D7FEE1E71B4802E0AA
:101B9800FFF7F6FA68B3636800EB5300B0FBF3F0A5
:101BA80080B2A0F110024FF6EF739A4223D823684F
:101BB800D860002000232366636610BDFFF7F2FAA1
:101BC800E8E7FEF7B9FEE5E74FF40040E3E7012058
:101BD800F0E70020EEE70120ECE70120EAE701202A
:101BE800E8E70120E6E70020E4E70120E2E701203A
:101BF800E0E70020DEE70120DCE700BF0024F40076
:101C0800436A13F0010F06D00268536823F40033C7
:101C1800816A0B435360436A13F0020F06D00268CF
:101C2800536823F48033C16A0B435360436A13F04B
:101C3800040F06D00268536823F48023016B0B431A
:101C48005360436A13F0080F06D00268536823F400
:101C58000043416B0B435360436A13F0100F06D0E7
:101C68000268936823F48053816B0B439360436A43
:101C780013F0200F06D00268936823F40053C16B59
:101C88000B439360436A13F0400F0AD0026853680D
:101C980023F48013016C0B435360036CB3F5801F6E
:101CA8000BD0436A13F0800F06D00268536823F400
:101CB8000023816C0B43536070470268536823F418
:101CC800C003416C0B435360EBE72DE9F84305462D
:101CD8000F4616469946DDF820802C68E46937EAF5
:101CE80004030CBF4FF0010C4FF0000CB4453CD17D
:101CF800B8F1FF3FF1D0FEF72FFCA0EB09004045FB
:101D080021D8B8F1000F1ED02B681A6812F0040F02
:101D1800E3D0DA6912F4006FDFD04FF400621A6280
:101D28002A68136823F4D07313602A68936823F031
:101D38000103936020236B67AB67EB67002385F88B
:101D48007030032012E02A68136823F4D0731360FC
:101D58002A68936823F00103936020236B67AB67BD
:101D6800002385F87030032000E00020BDE8F883E8
:101D780030B583B004460023C367FEF7EDFB054684
:101D88002268126812F0080F0CD123681B6813F040
:101D9800040F15D120236367A367002084F870001F
:101DA80003B030BD6FF07E430093034600224FF42A
:101DB80000112046FFF789FF0028E6D00320EFE74F
:101DC8006FF07E4300932B4600224FF4800120469B
:101DD800FFF77BFF0028DDD00320E1E768B310B5EB
:101DE8000446436F03B3242363672268136823F010
:101DF800010313602046FFF76FFD012813D0636AC3
:101E0800BBB92268536823F49043536022689368EF
:101E180023F02A0393602268136843F001031360D8
:101E28002046FFF7A5FF10BD80F8703000F0E4F8F9
:101E3800D9E72046FFF7E4FEE3E7012070470000FA
:101E480010B58AB000240594069407940894099460
:101E5800204BDA6C42F00402DA64DA6C02F0040215
:101E68000192019ADA6C42F08002DA64DA6C02F0CC
:101E780080020292029ADA6C42F00102DA64DA6CA9
:101E880002F001020392039ADA6C42F00202DA6469
:101E9800DB6C03F002030493049B224620214FF0DD
:101EA8009040FEF7ABFC4FF4005305930A4B0693A2
:101EB800079405A90948FEF7B3FB202305930123DE
:101EC80006930794089405A94FF09040FEF7A8FBE5
:101ED8000AB010BD001002400000211000080048A0
:101EE80072B6FEE708B50B480B4B03604FF4E133BD
:101EF800436000238360C36003610C2242618361F5
:101F0800C36103624362FFF769FF00B908BDFFF7C9
:101F1800E7FF00BF5C0400200044004000B5B9B0F2
:101F28004422002127A800F013F9002122912391CF
:101F38002491259126918822684600F009F9022308
:101F480027934FF480722A9210222B923193329366
:101F5800012233920A22349207223592369337931C
:101F680027A8FEF743FDE0B90F2322930323239309
:101F78000023249325932693042122A8FFF74CF8E5
:101F880088B90223009300230F936846FFF77AFA73
:101F980058B94FF40070FEF73FFC40B939B05DF80E
:101FA80004FBFFF79DFFFFF79BFFFFF799FFFFF784
:101FB80097FF08B5FEF7AEFAFFF7B0FFFFF740FF4F
:101FC800FFF790FFFEE7000082B00A4B1A6E42F05E
:101FD80001021A661A6E02F001020092009A9A6DC6
:101FE80042F080529A659B6D03F080530193019BE8
:101FF80002B070470010024000B589B00023039377
:1020080004930593069307930268144B9A4202D0EF
:1020180009B05DF804FB03F5E6339A6D42F400322B
:102028009A659A6D02F400320192019ADA6C42F0D4
:102038000102DA64DB6C03F001030293029B0C23B8
:10204800039302230493032306930723079303A907
:102058004FF09040FEF7E4FADAE700BF0044004092
:10206800FEE7FEE7FEE7FEE7FEE7704770477047CA
:1020780008B5FEF765FA08BD0C4B1A6842F0010274
:102088001A60002199601A6822F0A85222F41022DE
:102098001A604FF48052DA601A6822F480221A60BB
:1020A8009961034B4FF000629A607047001002403C
:1020B80000ED00E0DFF834D0FFF7DEFF002103E099
:1020C8000B4B5B58435004310A480B4B42189A4259
:1020D800F6D30A4A02E0002342F8043B084B9A422E
:1020E800F9D300F011F8FFF764FFFEE70080012044
:1020F80054230008000000203C0400203C04002079
:10210800E0040020FEE7000070B50D4E0D4D761B73
:10211800B61006D0002455F8043B01349847A6426F
:10212800F9D1094E094D761B00F0D4F8B61006D047
:10213800002455F8043B01349847A642F9D170BDF4
:1021480048230008482300085023000848230008B3
:10215800830730B548D0541E002A3FD0CAB2034680
:1021680001E0013C3AD303F8012B9D07F9D1032C78
:102178002DD9CDB245EA05250F2C45EA054536D9B6
:10218800A4F1100222F00F0C03F1200EE6444FEAEE
:10219800121C03F1100242E9045542E902551032BB
:1021A8007245F8D10CF1010214F00C0F03EB021286
:1021B80004F00F0C13D0ACF1040323F00303043331
:1021C800134442F8045B9342FBD10CF003042CB196
:1021D800CAB21C4403F8012B9C42FBD130BD6446B3
:1021E8001346002CF4D1F9E703461446BFE71A4614
:1021F800A446E0E7024B13B1024800F005B8704767
:10220800000000001D220008002301461A46184657
:1022180000F01AB838B5084B084D5B1B9C1007D066
:10222800043B1D44013C55F804399847002CF9D16A
:10223800BDE8384000F054B8542300085023000883
:10224800704700BF704700BF2DE9F047DFF87CA05A
:102258000646DAF8000098460F469146FFF7F0FF69
:102268001B4B1B68D3F8484124B365681F2D26DC37
:102278005EB96B1C0235DAF80000636044F825701B
:10228800FFF7E0FF0020BDE8F08704EB850101239C
:10229800C1F88890D4F88821AB401A43022EC4F8BC
:1022A8008821C1F80881E4D1D4F88C211343C4F8FB
:1022B8008C31DEE703F5A674C3F84841D5E7DAF8B0
:1022C8000000FFF7BFFF4FF0FF30DCE738040020C5
:1022D8003C230008F8B500BFF8BC08BC9E46704710
:0C22E800F8B500BFF8BC08BC9E4670476B
:1022F40000000000000000000102030406070809B2
:102304000000000001020304A0860100400D030048
:10231400801A060000350C0040420F0080841E0025
:1023240000093D0000127A000024F40000366E011A
:0C2334000048E801006CDC0210000020F2
:08234000B8DEFF7F0100000080
:08234800FD210008AD010008B1
:0423500089010008F7
:10235400010000001000000000093D000000000022
:1023640000000000FC02002064030020CC030020D5
:102374000000000000000000000000000000000059
:102384000000000000000000000000000000000049
:102394000000000000000000000000000000000039
:1023A4000000000000000000000000000000000029
:1023B4000000000000000000000000000000000019
:1023C4000000000000000000000000000000000009
:1023D40000000000000000000000000000000000F9
:1023E40000000000000000000000000000000000E9
:1023F40000000000000000000000000000000000D9
:1024040000000000000000000100000000000000C7
:102414000E33CDAB34126DE6ECDE05000B0000008C
:1024240000000000000000000000000000000000A8
:102434000000000000000000000000000000000098
:102444000000000000000000000000000000000088
:102454000000000000000000000000000000000078
:0C2784000000000000000000DC04002049
:04000005080020BD12
:00000001FF
